:020000040800F2
:10000000605E0020F102000833080008EF070008D6
:10001000310800082F070008E50C00080000000068
:100020000000000000000000000000003102000895
:1000300071070008000000008D020008750C000820
:100040000B0300080B0300080B0300080B03000858
:100050000B0300080B0300080B0300080B03000848
:100060000B0300080B0300080B0300080B03000838
:100070000B0300080B0300080B0300080B03000828
:100080000B0300080B0300080B0300080B03000818
:100090000B0300080B0300080B0300080B03000808
:1000A0000B0300080B0300080B0300080B030008F8
:1000B0000B0300080B0300080B0300080B030008E8
:1000C0000B0300080B0300080B0300080B030008D8
:1000D0000B0300080B0300080B0300080B030008C8
:1000E0000B0300080B0300080B0300080B030008B8
:1000F0000B0300080B0300080B0300080B030008A8
:100100000B0300080B0300080B0300080B03000897
:100110000B0300080B0300080B0300080B03000887
:100120000B0300080B0300080B0300080B03000877
:100130000B0300080B0300080B0300080B03000867
:100140000B0300080B0300080B0300080B03000857
:100150000B0300080B0300080B0300080B03000847
:100160000B0300080B0300080B0300080B03000837
:100170000B0300080B0300080B0300080B03000827
:100180000B0300080B03000800F002F800F041F830
:100190000AA090E8000C82448344AAF10107DA45E2
:1001A00001D100F036F8AFF2090EBAE80F0013F0F3
:1001B000010F18BFFB1A43F001031847C82B0000BA
:1001C000E82B0000103A24BF78C878C1FAD852074B
:1001D00024BF30C830C144BF04680C6070470000C1
:1001E0000023002400250026103A28BF78C1FBD840
:1001F000520728BF30C148BF0B607047642900F028
:10020000DF80002070471FB502F084F81FBD10B5D5
:1002100010BD00F052FA1146FFF7F5FF00F0E0FDC7
:1002200000F070FA03B4FFF7F2FF03BC00F078FAB5
:100230002C4B19680868B0E8F04F80F30988BFF3C9
:100240006F8F4FF0000080F31188704700000000AE
:1002500008480068006880F308884FF0000080F3C9
:10026000148862B661B6BFF34F8FBFF36F8F00DFA4
:1002700000BF00BF08ED00E0DFF80C00016841F4AA
:1002800070010160704700BF88ED00E0EFF3098066
:10029000BFF36F8F134B1A681EF0100F08BF20EDCD
:1002A000108A20E9F04F106009B44FF0500080F33D
:1002B0001188BFF34F8FBFF36F8F01F039FC4FF000
:1002C000000080F3118809BC19680868B0E8F04F95
:1002D0001EF0100F08BFB0EC108A80F30988BFF33E
:1002E0006F8F704724000020EFF3058070470000F7
:1002F0000948804709480047FEE7FEE7FEE7FEE7BA
:10030000FEE7FEE7FEE7FEE7FEE7FEE704480549F5
:10031000054A064B70470000890C00088901000857
:1003200060580020605E0020605A0020605A002063
:100330000FB41CB5074B06AA7B446946009005988C
:1003400000F071F90020694600F080F91CBC5DF8EE
:1003500014FB0000110300002DE9F0410E46044695
:10036000002020622046E168884730B3252805D068
:10037000D4E901219047206A401CF2E7E168204659
:1003800000278847050018D0A5F14100192802D898
:1003900020354FF400673246294620462760FFF794
:1003A0002DFF40B1012804D0F61D26F007060836BF
:1003B000D8E7361DD6E72846DAE7206ABDE8F0819F
:1003C0002DE9F0410646002410687529314616A52E
:1003D00010D0AFF30080002802DA404213A507E0F6
:1003E00031688A0701D512A502E0490704D511A595
:1003F000012401E0AFF3008000210A2206F1240766
:1004000009E0B0FBF2FCB0FBF2F302FB1C00303061
:1004100078541846491C0028F3D123462A46304612
:10042000BDE8F04100F0A1B8000000002D00000080
:100430002B00000020000000032A40F2308010F062
:10044000030C00F0158011F8013BBCF1020F62446F
:1004500098BF11F801CB00F8013B38BF11F8013B00
:10046000A2F1040298BF00F801CB38BF00F8013BAD
:1004700011F0030300F0EF80083AC0F0088051F853
:10048000043B083A51F804CBA0E80810F5E7121D28
:100490005CBF51F8043B40F8043BAFF30080D20747
:1004A00024BF11F8013B11F801CB48BF11F8012B13
:1004B00024BF00F8013B00F801CB48BF00F8012B36
:1004C000704702F0FF0343EA032242EA024200F0CF
:1004D00002B84FF000020429C0F0128010F0030CA3
:1004E00000F01B80CCF1040CBCF1020F18BF00F827
:1004F000012BA8BF20F8022BA1EB0C0100F00DB8D6
:100500005FEAC17C24BF00F8012B00F8012B48BF33
:1005100000F8012B70474FF0000200B513469446D7
:100520009646203922BFA0E80C50A0E80C50B1F14B
:100530002001BFF4F7AF090728BFA0E80C5048BF5F
:100540000CC05DF804EB890028BF40F8042B08BFFD
:10055000704748BF20F8022B11F0804F18BF00F8F9
:10056000012B70477047704770472DE9F0470D46E3
:1005700099469246044600F124080168880604D58D
:10058000E06921F01001216000E00120A84201DDB6
:10059000471B00E00027A1697A1902EB0900081A3D
:1005A000A0612078C00602D42046AFF30080002668
:1005B00008E0D4E901211AF806009047206A401C9F
:1005C000761C20624E45F4DB2078C0060AD5204612
:1005D000AFF3008006E0D4E9012130209047206A83
:1005E000401C2062381EA7F10107F4DC07E0D4E9C3
:1005F000012118F805009047206A401C2062281E3F
:10060000A5F10105F3DC2046AFF300802078000659
:1006100002D50220BDE8F0870120FBE701694A1CF2
:1006200002610878704700B58FB0CDE90131002133
:10063000059105497944CDE9031011466846FFF755
:100640008BFE0FB000BD0000E5FFFFFF0A6802F857
:10065000010B0A60704710B5203AC0F00B80B1E87A
:100660001850203AA0E81850B1E81850A0E81850E7
:10067000BFF4F5AF5FEA027C24BFB1E81850A0E8F0
:10068000185044BF18C918C0BDE810405FEA827C0A
:1006900024BF51F8043B40F8043B08BF7047D20721
:1006A00028BF31F8023B48BF11F8012B28BF20F8C2
:1006B000023B48BF00F8012B7047754600F02CF84C
:1006C000AE4605006946534620F00700854618B03F
:1006D00020B5FFF71BFEBDE820404FF000064FF0AD
:1006E00000074FF000084FF0000B21F00701AC4667
:1006F000ACE8C009ACE8C009ACE8C009ACE8C00986
:100700008D46704710B50446AFF300802046BDE823
:100710001040FFF787BD00000048704700580020D8
:1007200001491820ABBEFEE7260002007047FEE735
:100730007CB50121022000F011FA01208DF804009F
:1007400000228DF8062002218DF80510074D4FF488
:1007500080648DF8070000946946284600F009F887
:100760002146284600F041F87CBD0000000402400C
:100770007047F0B5002201274FF0030C0B6807FA11
:1007800002F52B40AB422CD1066853000CFA03F45F
:10079000A64306600E79D0F800E09E4046EA0E06B9
:1007A00006600E79012E01D0022E12D18668A64372
:1007B00086604E79D0F808E09E4046EA0E068660D4
:1007C0004668AE43466045688E799640B6B235437A
:1007D0004560C568A543C560CC799C40C3681C438F
:1007E000C460521C102AC9D3F0BD01837047FEE7D4
:1007F0007CB50121102000F0B1F901208DF8040032
:1008000000228DF8062003218DF80510074D4FF4C6
:1008100080648DF80700009469462846FFF7A9FF19
:1008200021462846FFF7E1FF7CBD00000010024092
:10083000FEE770470249084302490860704700001C
:100840000000FA050CED00E010B40021084B0A4648
:10085000002003EBC004401CC0B262548028F8D3CF
:10086000491CC9B20829F3D310BC00F0C9B8000074
:10087000A000002000B500218D2000F047F90021E4
:10088000142000F043F90021AF205DF804EB00F0E4
:100890003DB9000010B57F2816D83F2914D807238A
:1008A000A3EBD10301F00701C1F107040121A1402D
:1008B000064CDBB204EBC000002AC25CC9B201D016
:1008C0000A4300E08A43C25410BD0000A00000208B
:1008D0007CB50121102000F041F901268DF804605B
:1008E00000244FF4F0708DF8064000908DF805401C
:1008F0008DF8074069464048FFF73BFF0121080794
:1009000000F038F9012000F023F9002000F03EF952
:10091000002000F01DF9394DC5F89C42642005F512
:10092000277500F00BFA2E600021AE2000F0EEF8E3
:100930000021D52000F0EAF80021502000F0E6F870
:100940000021A82000F0E2F800213F2000F0DEF8AE
:100950000021D32000F0DAF80021084600F0D6F894
:100960000021402000F0D2F800218D2000F0CEF8C8
:100970000021142000F0CAF80021202000F0C6F861
:100980000021022000F0C2F80021A12000F0BEF8F2
:100990000021C02000F0BAF80021DA2000F0B6F8FB
:1009A0000021122000F0B2F80021812000F0AEF802
:1009B0000021EF2000F0AAF80021D92000F0A6F8CD
:1009C0000021F12000F0A2F80021DB2000F09EF8C9
:1009D0000021302000F09AF80021A42000F096F8C1
:1009E0000021A62000F092F80021AF2000F08EF840
:1009F000FFF72AFF7CBD00000010024000004242C9
:100A000070B5104E002505F1B000C0B2002100F015
:100A10007DF80021084600F079F80021102000F050
:100A200075F8002406EBC4000121405D00F06EF86B
:100A3000641CE4B2802CF5D36D1CEDB2082DE2D31A
:100A400070BD0000A00000202DE9F04F203A98462C
:100A50000D468346894602F0FF0A00262EE0B8F1D3
:100A60000C0F08D0174901EB0A100027845D2006FF
:100A700007D5099A08E014490AEB4A0001EB800007
:100A8000F3E7099890B1002229465846FFF702FF84
:100A90006D1C6006EDB2040EA5EB0901414507D1BE
:100AA0000BF101004D4600F0FF0B05E00122EBE7E2
:100AB0007F1CFFB2082FDAD3761CF6B24645CED3A0
:100AC000BDE8F08F922700081E230008F8B51646EF
:100AD0000D460446012714E07A2C02D90024103573
:100AE000EDB23A2D03D900242546FFF7ADFE00975D
:100AF00032780C2329462046FFF7A6FF0834E4B2DB
:100B0000761C30780028E7D1F8BD000030B500230E
:100B10000E4A012411B1C2F8A04201E0C2F8A0328D
:100B20000021C2F89432050602D5C2F8984201E0CD
:100B3000C2F89832C2F894424006491C000EC9B26D
:100B40000829EED3C2F8A04230BD000000004242A6
:100B5000014908627047000000000E42044A002963
:100B6000116801D0014300E081431160704700002B
:100B700030380240044A0029116801D0014300E0E6
:100B8000814311607047000040380240054900224F
:100B90000A700A70012802D0042801D105200870CB
:100BA00070470000703802400CB5002227490092BF
:100BB0000192086840F4803008604FF4A043086850
:100BC00000F4003001900098401C0090019810B98A
:100BD00000989842F3D10868800334D50120019031
:100BE0001A484030026842F0805202601848026899
:100BF00042F4404202601548083002680260026810
:100C000042F400420260026842F4A0520260031FF4
:100C1000104A1A600A6842F080720A600A689201FB
:100C2000FCD50D4940F205720A60016821F003010C
:100C30000160016841F0020101600168C1F38101B6
:100C40000229FAD10CBD01920CBD0000003802400F
:100C50000070004008544007003C02404FF0E02183
:100C60000428086903D020F004000861704740F0B0
:100C70000400FAE710B501F057F9012803D0BDE8E8
:100C8000104000F0C7BF10BD124810B5016841F414
:100C9000700101601048016841F0010101600E4AD5
:100CA00000210832116002680C4B1A400260031DDB
:100CB0000B4A1A60026822F48022026006480C3057
:100CC0000160FFF771FF03494FF000608039086051
:100CD00010BD000088ED00E000380240FFFFF6FE86
:100CE00010300024FEE70000054C41F65835D4F8DA
:100CF000A802C143C4F8A812284600F01FF8F6E77E
:100D00000080404210B504460420FFF7A7FF0A48C0
:100D10004FF47A71047014FB01F1012242804FF00C
:100D2000E020026942F0020202614161016941F082
:100D30000101016110BD00001800002070B50446DB
:100D400001F0F2F801280BD0094D6888844203D3E2
:100D5000B4FBF0F000F00CFE6888B4FBF0F070BD5E
:100D60004FF47A706043BDE8704000F003B80000B3
:100D70001800002070B54FF0E02500216C69094A89
:100D8000AB6912785043AA699A42FCD002D2A3EB15
:100D9000020302E0A4EB02063344194413468142E5
:100DA000F1D370BD1800002010B501F0BDF8012886
:100DB00003D0BDE8104001F0C5B80148406810BD3F
:100DC00018000020054C41F28835D4F8A802C14330
:100DD000C4F8A8122846FFF7B1FFF6E70000424228
:100DE0007CB500F0DBFCFFF7A3FCFFF771FD0424EA
:100DF000104DA601002332460FA11248CDE900454F
:100E000001F038F800F060FE002332460EA11148D0
:100E1000CDE9004501F02EF800F056FE00233246E1
:100E20000DA11048CDE9004501F024F800F04CFE7A
:100E300000207CBD0000002073746172745F7461D7
:100E4000736B00001D17000862757A7A65725F7413
:100E500061736B00E90C000873686F775F746173EE
:100E60006B000000DD1600083EB512A007C88DE833
:100E70000700FFF7FFFC00216A460846FFF726FE41
:100E80000F4C10A110482278FFF752FA0E486278F2
:100E90000CA10A30FFF74CFA0B4A28211420FFF767
:100EA00015FE094A14210A320846FFF70FFEFFF724
:100EB000A7FD3EBD416E67205969205875616E00DF
:100EC0002000002025640000A00400202DE9F0414E
:100ED0001E4D0F460446EE682868001D00F06AFCAF
:100EE00038B9286890F82C1001208840296981437E
:100EF0002961601C15D1A7B115492A68486890601E
:100F00002B688268DA602A688368121D5A602A6832
:100F1000121D8260286841610868401C0860BDE8B5
:100F2000F08128683444B4424460296805D2E86BF3
:100F3000BDE8F041091D00F065BCA86B091D00F07B
:100F400061FCA86A8442EAD2AC62E8E7240000208F
:100F5000C40700202DE9F041044600F077FC354E2F
:100F6000B068401CB0603068334F10B1706930B366
:100F70002BE03460B068012827D1002505EB8500FF
:100F800007EB800000F030FC6D1C202DF6D32B48C1
:100F900000F02AFC2948143000F026FC27482830AD
:100FA00000F022FC25483C3000F01EFC2348503065
:100FB00000F01AFC2148B0631430F06305E030689B
:100FC000E16AC06A884200D83460706A0121401C1E
:100FD00070626064E06A326981401143316100EB04
:100FE000800007EB80004068A0608168E160826853
:100FF000211D51608160E06A00EB800007EB8001F9
:10100000616157F82010491C47F8201000F032FCAD
:10101000706900280CD03068E16AC06A884207D243
:1010200007494FF080500860BFF34F8FBFF36F8FB9
:10103000BDE8F08124000020F404002074070020A3
:1010400004ED00E010B500F001FC0E4C2068A0B9E2
:101050000D4800F0C9FB0C48143000F0C5FB0A48ED
:10106000E0601430206100221021052000F0E8FD2E
:10107000206010B105A100F03BFCBDE8104000F07D
:10108000F9BB000064000020D8070020546D7251A5
:101090000000000030B4026C0B46002A0BD0C1687F
:1010A0001144C1608468A14201D30168C16030BCB1
:1010B0001846FFF7C1B930BC70472DE9F041856B88
:1010C000174604460026026C82B1C7B1E068FFF7FC
:1010D000B3F9E168206C091AE1602268914202D2FA
:1010E000A168081AE060022F16D017E02068A8B99E
:1010F000A06800F0B7FF06460020A0600EE0606820
:10110000FFF79AF9216C606808446060A168884222
:1011100004D32068606001E005B16D1E6D1CA563FD
:101120003046BDE8F08110B50446006B00F0ACFB22
:101130002046BDE8104000F0A7BB00000E484FF469
:10114000A041420706D0C01D0B4920F00700411AFC
:10115000C1F5A041094B00220144C3E9000208394E
:10116000143B21F0070119604A600A600A1AC0E9BD
:1011700000129A605A607047000800208C0000201E
:10118000134E144DA6F52F774FF08058DFF8489096
:1011900011E000F05BFBF068C468201D00F00AFB62
:1011A000A868401EA8606868401E686000F062FB86
:1011B0002046FFF7B8FF68680028EAD138680128A0
:1011C000F9D9C9F80080BFF34F8FBFF36F8FF2E7F3
:1011D000B00700202400002004ED00E02DE9F047D6
:1011E0000E46DDE909841746824691009946089D1E
:1011F000A522206BFFF765F96FF00301206B01EB6F
:101200008701084420F0070766B100202218315CEE
:1012100082F83410315C11B1401C1028F6D3002044
:1012200084F84300202D00D31F25E562201DE564CE
:1012300000F0E5FA04F1180000F0E1FA2461C5F1CC
:1012400020006462A0614A465146384600F030FAF8
:101250002060B8F1000F01D0C8F80040BDE8F08769
:1012600030B5114900E011460A688242FBD34B6851
:101270005C18844203D140681844486008464368BB
:101280001C18944209D1084C143C2468A24209D08D
:1012900052681A4442600A6812680260814200D0B3
:1012A000086030BD0460F9E78C00002070B50024B0
:1012B00041600B4D0061914206D8D11A826991427A
:1012C00006D2011D286907E09A4203D2994201D350
:1012D000012403E0011DE86800F094FA204670BD87
:1012E0006400002010B5044600F0B0FAA06B20B1F5
:1012F000002400F0BFFA204610BD0124F9E7F1B543
:1013000000260098846CA06BA06BE16B884210D221
:1013100094F94550002269462046FFF7CEFE064666
:10132000681C08D000F05AFA854202D26D1C84F87D
:1013300045503046F8BD606A0028FAD004F1240018
:1013400000F0D8FE0028F4D00126F2E770B506467A
:101350000D480D46C068C068C468201D00F02AFA18
:1013600094F82800410705D52A463146204600F06A
:10137000B5F803E000F0FE0084F828002046216A5A
:10138000BDE87040084700006400002070B586B0DA
:10139000364E61E00098002806DADDE90201019A84
:1013A00090470098002857DB029C606910B1201D0F
:1013B00000F000FA04A800F0B3F8054600980A28E7
:1013C0004AD2DFE800F0490505282E3D0505282E04
:1013D00094F828002A4640F0010084F8280001987B
:1013E000A169034601442046FFF760FF38B394F833
:1013F0002800410707D50198A1692A4601442046E3
:1014000000F06CF803E000F0FE0084F82800216A88
:101410002046884720E014F8280F00F0FE002070D6
:101420001AE094F828002B4640F0010084F82800C8
:101430000198A06141191A462046FFF737FF0BE0DB
:1014400094F82800810703D4204600F01DFA03E039
:1014500000F0FE0084F8280000226946306800F0A1
:1014600063FC002896D106B070BD00006400002027
:10147000F8B50D46064600F053FB684600F050F8FC
:101480000446009810B100F09BFEF8BD1148ADB1C4
:1014900001690968D9B10025311B2A46006800F0AE
:1014A00045FA00F08DFE0028EFD10B494FF0805037
:1014B0000860BFF34F8FBFF36F8FF8BDA642EBD824
:1014C00000F07EFE21463046FFF740FFF8BD0125C3
:1014D000E2E700006400002004ED00E070B516466D
:1014E0000C46054604E0A869296A04442846884752
:1014F000A8692346011932462846FFF7D7FE00287F
:10150000F1D170BD0548816B096821B1816BC96853
:101510000968816270474FF0FF31FAE7240000202C
:101520002DE9F041064600F00DFD0E4D0446A86879
:10153000844214D24FF0FF3704E0C0683946006897
:10154000FFF704FFE86801680029F6D12969C5E9B9
:101550000310012030602046AC60BDE8F08100201F
:10156000F8E7000064000020502080F31188BFF3EA
:101570004F8FBFF36F8FFEE7084CE068016839B109
:10158000002139B10020FFF773FFFFF7FFFEF4E7FA
:101590000121F6E7C0680068F5E70000640000205C
:1015A0002DE9F041044600F051F994F9455004F159
:1015B00024060FE0A06C18B12046FFF7A0FE04E05F
:1015C000606A48B1304600F095FD08B100F044FA79
:1015D0006D1E6DB2002DEDDC4FF0FF3684F84560D6
:1015E00000F048F900F032F994F9445004F1100782
:1015F00009E0206948B1384600F07CFD08B100F0F0
:101600002BFA6D1E6DB2002DF3DC84F84460BDE84A
:10161000F04100F02FB9000070B50446002500F03D
:101620007FFA224E306808B9FFF788FDCCB304F08A
:101630000700C0F11000C1438C4232D821180029A4
:101640002FDD706881422CD8184A14321046046885
:1016500001E0224604466068884202D220680028E1
:10166000F7D1306884421CD015682068106060682B
:101670000835421A102A04D9601842606160FFF7E9
:10168000EFFD61687068401A7060B268904200D2E5
:10169000B06041F00040606000202060F068401CB5
:1016A000F06000F08DFD284670BD0000780000203D
:1016B00010B5031F4FF080741C601B1F21F0010147
:1016C0001960191F044B0B6014390A60091F6FF071
:1016D000020244380A6010BD6915000808B5FFF71A
:1016E00063FB0D4C4FF47A76002500901421684678
:1016F00000F0EEFB2078401C2070304600F038F9F6
:1017000020783C2805D16078401C60702570FFF778
:101710009BF8FFF7A9FBE9E7200000207CB500F06B
:1017200095F8002503242B4680220FA11148CDE90E
:10173000004500F09FFB002380220FA11148CDE956
:10174000004500F097FB00234FF400720EA11148F2
:10175000CDE9004500F08EFB0F48006800F024F949
:10176000BDE87C4000F086B86C65645F7461736BA3
:1017700000000000C50D000862757A7A65725F741A
:1017800061736B00E90C000873686F775F746173B5
:101790006B000000DD1600080000002010B54FF4BB
:1017A0004070FFF747F8A820FFF7ACFABDE81040FB
:1017B000FFF71EB8D0E9013201699A60D0E9012330
:1017C0005A604A68824201D182684A6000220261FE
:1017D0000868401E0860086870470000014880687B
:1017E000704700002400002000F108014FF0FF3294
:1017F000C0E90112C1600161002101607047002150
:101800000161704730B50C68621C02D000F108021B
:1018100002E0026904E01A4653681D68A542FAD93D
:1018200053684B6099608A60516008610168491C87
:10183000016030BD42684A6093688B60936859606C
:10184000916008610168491C01607047502080F375
:101850001188BFF34F8FBFF36F8F04494868401C56
:101860004860012801D102480068704794000020B8
:1018700004ED00E003494868401E486001D180F350
:10188000118870479400002070B500281BD0A0F18B
:1018900008046068002816DA2168002913D120F0B6
:1018A0000040606000F03CF9074D606869680844DA
:1018B00068602046FFF7D4FC2869401C2861BDE819
:1018C000704000F07DBC70BD780000204FF0E0203B
:1018D00000210161816105494FF47A720968B1FB09
:1018E000F2F1491E416107210161704704000020A7
:1018F00070B50023002915D00B4D002205EBC20462
:101900006668864202D105EBC20307E01BB955F8B1
:10191000326006B92346521C082AEFD3002B01D0AF
:10192000C3E9001070BD0000B404002070B5154676
:101930000E460446FFF78AFF94F944100020491C24
:1019400001D184F8440094F94510491C01D184F870
:101950004500FFF78FFFA06B28B92A46314604F1F6
:10196000240000F091F82046BDE87040FFF718BE53
:1019700010B502000BD00A48406B00F0D1F80021EE
:101980001046FFF7A3FA00F01BFC002807D1054919
:101990004FF080500860BFF34F8FBFF36F8F10BDC3
:1019A0002400002004ED00E070B50446FFF74EFF70
:1019B000214D04B92C68201DFFF7FCFE58B9E06AE0
:1019C0001E4A00EB800152F8211021B9012181400B
:1019D000286988432861A06A18B104F11800FFF74C
:1019E000E9FE686A401C68622868844207D1211DAC
:1019F0001348FFF71FFF6868401C686004E0A86890
:101A0000401EA860FFF77EFDFFF734FF2868844280
:101A100002D02046FFF787FB686900280BD02868B2
:101A2000844208D1686B07494FF080500860BFF3CB
:101A30004F8FBFF36F8F70BD24000020F40400208F
:101A4000B007002004ED00E002490A6A0260C9689C
:101A5000416070472400002001490120C86170479F
:101A600024000020024610B506480C4601681046C6
:101A70001831FFF7C7FE2046BDE810400121FFF7EF
:101A800025BA000024000020F0B40E4B0C4641683B
:101A90001D68E9618D681E6835621D688E6818359D
:101AA00075601D6818358D60196888620168491C69
:101AB00001600AB14FF0FF342046F0BC1146FFF739
:101AC00005BA0000240000207CB511480025CDE9AE
:101AD00000502B4682220FA1104800F0CBF90C4C8D
:101AE0002C3C012812D100F0F7FB01280ED1502028
:101AF00080F31188BFF34F8FBFF36F8F4FF0FF302C
:101B0000A06201206061E56000F036F8206B7CBDCA
:101B10005000002049444C4500000000811100089D
:101B20000248416B491C41637047000024000020BB
:101B30000F4A506B10B10120D06170470020D06176
:101B400010690C49B0FA80F0C0F11F0000EB800072
:101B500051F8203001EB800000F10803416849682A
:101B60004160994201D149684160C868106070477E
:101B700024000020F40400201CB5224801680068FD
:101B8000214908780190FF20087008788DF800003E
:101B90009DF800009DF800009DF800001B4C00F02F
:101BA000500020700720A06007E0A068401EA060E1
:101BB0009DF8000040008DF800009DF80000000630
:101BC000F3D4207A000200F4E060A060019808706D
:101BD0000C482030016841F470010160016841F057
:101BE00070410160FFF772FE00206060FEF744FB69
:101BF0000748016841F040410160FEF729FB0020E1
:101C00001CBD000000ED00E000E400E094000020B6
:101C100034EF00E010B5502080F31188BFF34F8FF0
:101C2000BFF36F8F00F094F918B104494FF0805062
:101C30000860002080F3118810BD000004ED00E072
:101C40002DE9F04117460E4605004FF000041CD068
:101C5000601EB0FBF5F0B04217D305FB06F010F1A3
:101C6000550F12D85430FFF7D7FC04000DD004F103
:101C700054006EB12060C4E90F562046012100F0E7
:101C800009F884F850700021A1642046BDE8F08175
:101C90002460F0E72DE9F0410E4604004FF0010505
:101CA0003BD0E06BC0B3AF1EB7FBF0F1206C8142BC
:101CB00033D3FFF7CBFDD4E90F20216802FB0011DD
:101CC000A1600021A163216861600A46D4E90F0187
:101CD000401E00FB01212046E16000F8447F477070
:101CE00004F1100046B1FFF77FFD04F12400FFF777
:101CF0007BFDFFF7BFFD11E021690029F9D000F05D
:101D0000F9F90028F5D007494FF080500860BFF37B
:101D10004F8FBFF36F8FECE7FFE700252846BDE844
:101D2000F081000004ED00E02DE9F74783B08A461A
:101D30000446002600F0F8F800274FF08058DFF83E
:101D4000D890FFF783FDA56BC5B151462046FFF73C
:101D5000A1F96D1EA563206950B104F1100000F0D7
:101D6000C9F928B1C9F80080BFF34F8FBFF36F8F57
:101D7000FFF780FD012006B0BDE8F087059808B1A7
:101D80001EB106E0FFF776FD27E06846FFF75CFE30
:101D90000126FFF76FFDFFF7C3FEFFF757FD94F92C
:101DA0004400401C01D184F8447094F94500401C63
:101DB00001D184F84570FFF75DFD05A9684600F084
:101DC0002DF8002820460AD0FFF7EAFB00F0F8F9CA
:101DD0002046FFF787FA0028B3D00020CBE7FFF7B3
:101DE00081FA90B104F124000599FFF73BFE2046EB
:101DF000FFF7D6FB00F0E4F90028A2D1C9F8008073
:101E0000BFF34F8FBFF36F8F9BE72046FFF7C8FBF1
:101E100000F0D6F995E7000004ED00E02DE9F0416F
:101E20000D460446FFF712FD114EF26863682868FC
:101E3000D11A471C0AD02768D6F820C0002667456B
:101E400006D0934204D801242E600BE0002409E060
:101E5000884205D9401A28602046FFF7F5FDF5E7CE
:101E600001242E60FFF706FD2046BDE8F08100004A
:101E7000240000202DE9FF5F8346DDE90E879946A7
:101E800016468A469000FFF7C7FB05001DD05C2070
:101E9000FFF7C2FB040015D05C21FEF73CFB256375
:101EA0000021CDE90241CDE900874B46324651463B
:101EB0005846FFF793F92046FFF74CF8012004B08D
:101EC000BDE8F09F2846FFF7DFFC4FF0FF30F6E754
:101ED00070B5134A03460D460024506BFFF720FEF1
:101EE000D26818684119904202D9884202D804E0A9
:101EF000884201D8914200D9012419601CB1881A86
:101F00000021FEF7E3FF00F05BF938B905494FF017
:101F100080500860BFF34F8FBFF36F8F204670BDB6
:101F20002400002004ED00E00548416919B1406B30
:101F300018B1002070470120704702207047000050
:101F4000240000200148C0687047000024000020E1
:101F50002DE9F041414E0025706B28B1B069401C5D
:101F6000B0612846BDE8F081F468641CF4600AD1D1
:101F7000B06B0068B06BF16BB163F063306A401C0A
:101F80003062FFF7BFFAB06ADFF8D4E084420BD3C7
:101F90004FF0000CB06B0068A0B1B06BC068C168B6
:101FA0004868844211D2B0623068C06A00EB800099
:101FB0005EF82000012800D90125F0690028D0D062
:101FC0000125CEE74FF0FF30EDE7D1E90232486955
:101FD0009A60D1E902235A6043680A1D934201D1F5
:101FE000CB684360C1F814C003685B1E0360886A55
:101FF00088B1D1E907379F60D1E907377B6047682F
:1020000001F118039F4201D10B6A4360C1F828C057
:1020100003685B1E0360C86A0123376983403B4342
:10202000336100EB80000EEB8000406888608368BD
:10203000CB6083685A608260C86A00EB80000EEB58
:1020400080024A615EF82020521C4EF82020C86AA7
:102050003168C96A88429DD901259BE72400002088
:10206000F404002070B504004FF000003CD01F4D78
:102070002968216D491E2165E36CE26A9A4233D0DA
:10208000002931D1201DFFF795FB012130B994F8CB
:102090002C002A6901FA00F082432A61E06CE062B8
:1020A000C0F12000A061E06A2A69814011432961E2
:1020B0000F4A00EB800002EB80004068A06081685E
:1020C000E1608368211D59608160E06A00EB800057
:1020D00002EB80006061E06A00EB800052F82010A3
:1020E000491C42F82010012070BD0000240000208F
:1020F000F404002070B5C068C068D0E90732816A76
:102100009A60D0E907235A604B6800F118029342A5
:1021100001D1036A4B60002585620B685B1E0B6072
:10212000244B596B012499B1234D6968C1618E68B4
:1021300006628E6872608A6085622968491C29601F
:10214000C06A1968C96A884231D90120DC6170BD52
:10215000D0E902624169B260D0E9022672604E683D
:10216000021D964201D1C6684E6045610D686D1E24
:102170000D60C16A1E6904FA01F535431D610F4DFA
:1021800001EB810105EB8101496881608E68C660C1
:102190008E6872608A60C16A01EB810105EB810281
:1021A000426155F82120521C45F82120C8E7002043
:1021B00070BD0000240000209C070020F4040020D3
:1021C0002DE9F047404D0024A146686BFFF73EFB28
:1021D000686B401E6863686B002870D1A868DFF8E0
:1021E000ECC000264FF00108E8BB68E0DCF80C000A
:1021F000C468D4E90721A06A9160D4E9071251604C
:10220000426804F118018A4201D1216A4160A66244
:102210000168491E0160D4E9022160699160D4E936
:10222000021251604268211D8A4201D1E268426077
:1022300066610268521E0260E06A2F69434608FA2E
:1022400000F23A432A61224A00EB800002EB800050
:102250004068A0608768E760876879608160E06AAD
:1022600000EB800000E00DE002EB8001616152F8BC
:102270002010491C42F82010E06A2968C96A884287
:1022800000D3EB61DCF800000028AFD10CB1FFF700
:1022900039F9AC693CB14746FFF75AFE00B1EF612E
:1022A000641EF9D1AE61E86948B10A494FF0805027
:1022B0004FF001090860BFF34F8FBFF36F8FFFF737
:1022C000D9FA4846BDE8F087240000209C0700208A
:1022D000F404002004ED00E01CB50024FEF7B2FE7B
:1022E0000848006860B107491F20091DCDE90001B9
:1022F00000234FF4827204A10548FFF7BBFD04469A
:1023000020461CBD64000020546D7220537663008B
:10231000791500084FF04070E1EE100A7047000098
:1023200000000000000000000000000000003F402E
:1023300000000000000000003000400030004000BD
:10234000000009000BC03D000BC03D00090018C093
:1023500024407FE0224031800000180024C01B0090
:102360000D803240018003801C4027401C800740C4
:1023700000401000600000000000000000000000AD
:10238000000000001F80204040200000402020402E
:102390001F8000000000090006001F8006000900E1
:1023A0000000040004003F8004000400000000104E
:1023B00000600000000000000000040004000400B1
:1023C00004000400000000000040000000000000C5
:1023D0000000002001C006003800400000001F80FF
:1023E0002040204020401F800000000010403FC0DF
:1023F00000400000000018C0214022402440184046
:10240000000010802040244024401B800000020077
:102410000D0011003FC0014000003C8024402440DA
:102420002440238000001F80244024403440038047
:1024300000003000200027C03800200000001B8072
:102440002440244024401B8000001C0022C0224065
:1024500022401F8000000000000008400000000033
:102460000000000000000460000000000000000008
:1024700004000A0011002080404009000900090002
:1024800009000900000000004040208011000A00FF
:1024900004001800200023402400180000001F80C2
:1024A0002040274029401F400000004007C039005D
:1024B0000F0001C0004020403FC0244024401B804A
:1024C00000001F802040204020403080000020403D
:1024D0003FC0204020401F80000020403FC02440DB
:1024E0002E4030C0000020403FC024402E0030006D
:1024F00000000F0010802040224033800200204066
:102500003FC0040004003FC02040204020403FC0A6
:102510002040204000000060202020203FC02000FC
:10252000200020403FC024400B0030C0204020400D
:102530003FC020400040004000C03FC03C0003C0FE
:102540003C003FC0000020403FC00C4023003FC083
:1025500020001F802040204020401F80000020409D
:102560003FC024402400180000001F80214021406B
:1025700020E01FA0000020403FC02440260019C0DA
:10258000004018C024402440224031800000300028
:1025900020403FC020403000000020003F8000402D
:1025A00000403F80200020003E0001C007003800AE
:1025B0002000380007C03C0007C038000000204061
:1025C00039C0060039C0204000002000384007C054
:1025D000384020000000304021C02640384020C054
:1025E0000000000000007FE04020402000000000CC
:1025F00070000C00038000400000000040204020DC
:102600007FE00000000000002000400020000000EB
:10261000000000100010001000100010001000005A
:1026200000004000000000000000000002800540A3
:10263000054003C0004020003FC004400440038028
:102640000000000003800440044006400000000039
:102650000380044024403FC0004000000380054048
:10266000054003400000000004401FC024402440F7
:102670002000000002E005500550065004202040D4
:102680003FC00440040003C000400000044027C0D5
:1026900000400000000000100010041027E00000BF
:1026A000000020403FC00140070004C0044020401B
:1026B00020403FC000400040000007C0040007C0A9
:1026C000040003C00000044007C00440040003C02D
:1026D0000040000003800440044003800000041018
:1026E00007F0045004400380000000000380044011
:1026F000045007F00010044007C00240040004002A
:102700000000000006400540054004C00000000035
:1027100004001F80044000400000040007800040C7
:10272000044007C000400400070004C00180060008
:102730000400060001C0070001C0060000000440BC
:1027400006C0010006C0044000000410071004E0A9
:102750000180060004000000044005C0064004405B
:1027600000000000000004007BE0402000000000AA
:1027700000000000FFF000000000000040207BE0AF
:102780000400000000004000800040002000200005
:1027900040000000000000000000000000000000F9
:1027A00000000000000000001FCC000C0000000032
:1027B00000000000080030006000080030006000E9
:1027C0000000022003FC1E20022003FC1E20022029
:1027D000000000000E1811043FFF10840C78000068
:1027E00000000F0010840F3800C0077818840078AC
:1027F000000000780F8410C411240E9800E40084B7
:1028000000080800680070000000000000000000E0
:10281000000000000000000007E01818200440023B
:102820000000000040022004181807E0000000002B
:1028300000000240024001800FF00180024002408F
:1028400000000080008000800FF800800080008081
:1028500000000001000D000E00000000000000005C
:102860000000000000800080008000800080008068
:1028700000800000000C000C0000000000000000C0
:10288000000000000006001800600180060018002B
:102890002000000007F0080810041004080807F0E2
:1028A00000000000080408041FFC000400040000ED
:1028B000000000000E0C10141024104411840E0CA3
:1028C000000000000C1810041104110412880C7090
:1028D0000000000000E00320042408241FFC002462
:1028E000000000001F98108411041104108810705B
:1028F0000000000007F00888110411041888007017
:10290000000000001C00100010FC13001C00100050
:10291000000000000E3811441084108411440E3859
:10292000000000000700088C10441044088807F0DD
:102930000000000000000000030C030C0000000079
:10294000000000000000000101060000000000007F
:10295000000000000080014002200410080810045C
:102960000000022002200220022002200220022079
:10297000000000001004080804100220014000803C
:10298000000000000E001200100C106C10800F00F0
:10299000000003E00C1813E4142417C4082807D01F
:1029A00000000004003C03C41C40074000E4001C7D
:1029B000000410041FFC1104110411040E8800709F
:1029C000000003E00C1810041004100410081C1080
:1029D000000010041FFC100410041004080807F085
:1029E000000010041FFC1104110417C4100408187F
:1029F000000010041FFC1104110017C01000080093
:102A0000000003E00C181004100410441C7800406F
:102A1000000010041FFC10840080008010841FFC44
:102A200010040000100410041FFC10041004000027
:102A3000000000030001100110011FFE1000100033
:102A4000000010041FFC110403801464181C1004FF
:102A5000000010041FFC1004000400040004000C1B
:102A6000000010041FFC1F0000FC1F001FFC1004CE
:102A7000000010041FFC0C04030000E010181FFCF1
:102A8000100007F00808100410041004080807F0EC
:102A9000000010041FFC10841080108010800F00B4
:102AA000000007F0081810241024101C080A07F270
:102AB000000010041FFC1104110011C011300E0C95
:102AC000000400000E1C11041084108410441C38F3
:102AD00000001800100010041FFC10041000180063
:102AE000000010001FF810040004000410041FF878
:102AF000100010001E0011E0001C007013801C006C
:102B000010001FC0103C00E01F0000E0103C1FC080
:102B100000001004180C163401C001C01634180C43
:102B2000100410001C00130400FC13041C0010000F
:102B300000000804101C1064108413041C041018F6
:102B400000000000000000007FFE40024002400242
:102B50000000000030000C0003800060001C000337
:102B6000000000004002400240027FFE0000000022
:102B70000000000000002000400040004000200055
:102B8000000000010001000100010001000100013E
:102B90000001000040004000200000000000000094
:102BA000000000000098012401440144014400FC9D
:102BB000000410001FFC008801040104008800705C
:102BC0000000000000700088010401040104008876
:102BD00000000000007000880104010411081FFCBF
:102BE0000004000000F8014401440144014400C80D
:102BF00000000000010401040FFC11041104110085
:102C00001800000000D601290129012901C9010687
:102C1000000010041FFC008401000100010400FCFE
:102C2000000400000104190419FC00040004000061
:102C300000000000000300010101190119FE00005D
:102C4000000010041FFC0024004001B4010C01042A
:102C500000000000100410041FFC00040004000029
:102C60000000010401FC0104010001FC0104010059
:102C700000FC010401FC008401000100010400FCCF
:102C80000004000000F8010401040104010400F83C
:102C90000000010101FF00850104010400880070AB
:102CA000000000000070008801040104010501FF1C
:102CB00000010104010401FC008401040100018001
:102CC0000000000000CC012401240124012401980B
:102CD000000000000100010007F8010401040000E9
:102CE0000000010001F8000400040004010801FCD8
:102CF0000004010001800170000C001001600180DF
:102D0000010001F0010C003001C00030010C01F0A5
:102D1000010000000104018C00740170018C0104A9
:102D20000000010101810171000E001801600180A5
:102D3000010000000184010C013401440184010CF4
:102D40000000000000000000000001003EFC400206
:102D500040020000000000000000FFFF0000000033
:102D600000000000400240023EFC010000000000A4
:102D70000000000060008000800040004000200053
:102D800020000000A42D000800000020A00000008A
:102D9000C4010008442E0008A0000020C05D00000F
:102DA000E001000800000000007A030A00000000B3
:102DB00000000000010203040607080900000000EB
:102DC0000000000000000000000000000000000003
:102DD00000000000000000000000000000000000F3
:102DE00000000000000000000000000000000000E3
:102DF00000000000000000001F00000000000000B4
:102E000000000000000000000000000000000000C2
:102E100000000000000000000000000000000000B2
:102E200000000000000000000000000000000000A2
:102E3000000000000000000000000000AAAAAAAAEA
:042E4000000000008E
:040000050800018965
:00000001FF
