:020000040800F2
:10000000C05E0020F1020008CF080008490800087F
:10001000CD0800082F07000831100008000000007C
:100020000000000000000000000000003102000895
:10003000A5070008000000008D020008050E00085A
:100040000B0300080B0300080B0300080B03000858
:100050000B0300080B0300080B0300080B03000848
:100060000B0300080B0300080B0300080B03000838
:100070000B0300080B0300080B0300080B03000828
:100080000B0300080B0300080B0300080B03000818
:100090000B0300080B0300080B0300080B03000808
:1000A0000B0300080B0300080B0300080B030008F8
:1000B0000B0300080B0300080B0300080B030008E8
:1000C0000B0300080B0300080B0300080B030008D8
:1000D0000B0300080B0300080B030008750E000853
:1000E0000B0300080B0300080B0300080B030008B8
:1000F0000B0300080B0300080B0300080B030008A8
:100100000B0300080B0300080B0300080B03000897
:100110000B0300080B0300080B0300080B03000887
:100120000B0300080B0300080B0300080B03000877
:100130000B0300080B0300080B0300080B03000867
:100140000B0300080B0300080B0300080B03000857
:100150000B0300080B0300080B0300080B03000847
:100160000B0300080B0300080B0300080B03000837
:100170000B0300080B0300080B0300080B03000827
:100180000B0300080B03000800F002F800F041F830
:100190000AA090E8000C82448344AAF10107DA45E2
:1001A00001D100F036F8AFF2090EBAE80F0013F0F3
:1001B000010F18BFFB1A43F00103184788340000F1
:1001C000A8340000103A24BF78C878C1FAD8520782
:1001D00024BF30C830C144BF04680C6070470000C1
:1001E0000023002400250026103A28BF78C1FBD840
:1001F000520728BF30C148BF0B607047642900F028
:10020000DF80002070471FB502F0A4FC1FBD10B5B1
:1002100010BD00F052FA1146FFF7F5FF00F0EEFFB7
:1002200000F070FA03B4FFF7F2FF03BC00F078FAB5
:100230002C4B19680868B0E8F04F80F30988BFF3C9
:100240006F8F4FF0000080F31188704700000000AE
:1002500008480068006880F308884FF0000080F3C9
:10026000148862B661B6BFF34F8FBFF36F8F00DFA4
:1002700000BF00BF08ED00E0DFF80C00016841F4AA
:1002800070010160704700BF88ED00E0EFF3098066
:10029000BFF36F8F134B1A681EF0100F08BF20EDCD
:1002A000108A20E9F04F106009B44FF0500080F33D
:1002B0001188BFF34F8FBFF36F8F01F033FF4FF003
:1002C000000080F3118809BC19680868B0E8F04F95
:1002D0001EF0100F08BFB0EC108A80F30988BFF33E
:1002E0006F8F704778000020EFF3058070470000A3
:1002F0000948804709480047FEE7FEE7FEE7FEE7BA
:10030000FEE7FEE7FEE7FEE7FEE7FEE704480549F5
:10031000054A064B70470000190E000889010008C5
:10032000C0580020C05E0020C05A0020C05A0020E3
:100330000FB41CB5074B06AA7B446946009005988C
:1003400000F0A3F90020694600F0B2F91CBC5DF88A
:1003500014FB0000750300002DE9F0410E46044631
:10036000002020622046E168884730B3252805D068
:10037000D4E901219047206A401CF2E7E168204659
:1003800000278847050018D0A5F14100192802D898
:1003900020354FF400673246294620462760FFF794
:1003A0002DFF40B1012804D0F61D26F007060836BF
:1003B000D8E7361DD6E72846DAE7206ABDE8F0819F
:1003C0002DE9F0410646002410687529314616A52E
:1003D00010D0AFF30080002802DA404213A507E0F6
:1003E00031688A0701D512A502E0490704D511A595
:1003F000012401E0AFF3008000210A2206F1240766
:1004000009E0B0FBF2FCB0FBF2F302FB1C00303061
:1004100078541846491C0028F3D123462A46304612
:10042000BDE8F04100F0D3B8000000002D0000004E
:100430002B00000020000000032A40F2308010F062
:10044000030C00F0158011F8013BBCF1020F62446F
:1004500098BF11F801CB00F8013B38BF11F8013B00
:10046000A2F1040298BF00F801CB38BF00F8013BAD
:1004700011F0030300F02580083AC0F0088051F81D
:10048000043B083A51F804CBA0E80810F5E7121D28
:100490005CBF51F8043B40F8043BAFF30080D20747
:1004A00024BF11F8013B11F801CB48BF11F8012B13
:1004B00024BF00F8013B00F801CB48BF00F8012B36
:1004C000704710B5203AC0F00B80B1E81850203AC0
:1004D000A0E81850B1E81850A0E81850BFF4F5AFE4
:1004E0005FEA027C24BFB1E81850A0E8185044BF6E
:1004F00018C918C0BDE810405FEA827C24BF51F8DB
:10050000043B40F8043B08BF7047D20728BF31F8CE
:10051000023B48BF11F8012B28BF20F8023B48BF1F
:1005200000F8012B704702F0FF0343EA032242EA7E
:10053000024200F002B84FF000020429C0F012801D
:1005400010F0030C00F01B80CCF1040CBCF1020F86
:1005500018BF00F8012BA8BF20F8022BA1EB0C015B
:1005600000F00DB85FEAC17C24BF00F8012B00F851
:10057000012B48BF00F8012B70474FF0000200B577
:10058000134694469646203922BFA0E80C50A0E8B6
:100590000C50B1F12001BFF4F7AF090728BFA0E864
:1005A0000C5048BF0CC05DF804EB890028BF40F830
:1005B000042B08BF704748BF20F8022B11F0804F72
:1005C00018BF00F8012B70477047704770472DE93E
:1005D000F0470D4699469246044600F1240801680A
:1005E000880604D5E06921F01001216000E00120B7
:1005F000A84201DD471B00E00027A1697A1902EB40
:100600000900081AA0612078C00602D42046AFF382
:100610000080002608E0D4E901211AF8060090477E
:10062000206A401C761C20624E45F4DB2078C00610
:100630000AD52046AFF3008006E0D4E9012130203E
:100640009047206A401C2062381EA7F10107F4DCA5
:1006500007E0D4E9012118F805009047206A401C02
:100660002062281EA5F10105F3DC2046AFF30080CF
:100670002078000602D50220BDE8F0870120FBE7C4
:1006800001694A1C02610878704700B58FB0CDE956
:1006900001310021059105497944CDE90310114646
:1006A0006846FFF759FE0FB000BD0000E5FFFFFFF1
:1006B0000A6802F8010B0A607047754600F02CF8D2
:1006C000AE4605006946534620F00700854618B03F
:1006D00020B5FFF71BFEBDE820404FF000064FF0AD
:1006E00000074FF000084FF0000B21F00701AC4667
:1006F000ACE8C009ACE8C009ACE8C009ACE8C00986
:100700008D46704710B50446AFF300802046BDE823
:100710001040FFF787BD0000004870476058002078
:1007200001491820ABBEFEE7260002007047FEE735
:100730007CB50121022000F091FA00208DF8040020
:100740000220074D4FF480748DF80500009469462F
:10075000284600F028F82146284600F073F87CBDB2
:10076000000C02407CB50121022000F077FA012044
:100770008DF8040000228DF8062002218DF8051066
:10078000074D4FF480648DF80700009469462846B1
:1007900000F009F82146284600F054F87CBD00001E
:1007A000000402407047F0B5002201274FF0030C0F
:1007B0000B6807FA02F52B40AB422CD106685300B8
:1007C0000CFA03F4A64306600E79D0F800E09E40D0
:1007D00046EA0E0606600E79012E01D0022E12D1D5
:1007E0008668A64386604E79D0F808E09E4046EAC7
:1007F0000E0686604668AE43466045688E79964030
:10080000B6B235434560C568A543C560CC799C4008
:10081000C3681C43C460521C102AC9D3F0BD4B07E7
:10082000DB0E9A40C90810B500EB8100016A0F2465
:100830009C40A1430162016A1143016210BD00693D
:1008400080B2704701837047FEE70000FEB50121CA
:10085000102000F003FA01208DF8080000248DF824
:100860000A4003218DF80910114E4FF480658DF870
:100870000B00019501A93046FFF795FF2946304648
:10088000FFF7E0FF0B480090002301224FF47A713C
:1008900009A002F0F3F80C4D286001F025FF024694
:1008A000009400230121286802F02CF9FEBD00000D
:1008B00000100240E9110008426C696E6B4C45441F
:1008C000315365630000000070000020FEE77047B0
:1008D00030B50F23C27801780125FAB1144A1268A5
:1008E00001F1E02102F4E062C2F5E062C2F3072206
:1008F000C2F10404D3404278A24084781C401443DF
:10090000220181F80024007800F01F018D40400989
:10091000800000F1E020C0F8005130BD01F01F0060
:1009200085404809800000F1E020C0F8805130BDCA
:100930000CED00E0024908430249086070470000DE
:100940000000FA050CED00E010B40021084B0A4647
:10095000002003EBC004401CC0B262548028F8D3CE
:10096000491CC9B20829F3D310BC00F0C9B8000073
:10097000FE00002000B500218D2000F047F9002185
:10098000142000F043F90021AF205DF804EB00F0E3
:100990003DB9000010B57F2816D83F2914D8072389
:1009A000A3EBD10301F00701C1F107040121A1402C
:1009B000064CDBB204EBC000002AC25CC9B201D015
:1009C0000A4300E08A43C25410BD0000FE0000202C
:1009D0007CB50121102000F041F901268DF804605A
:1009E00000244FF4F0708DF8064000908DF805401B
:1009F0008DF8074069464048FFF7D5FE01210807FA
:100A000000F038F9012000F023F9002000F086F909
:100A1000002000F01DF9394DC5F89C42642005F511
:100A2000277500F05FFB2E600021AE2000F0EEF88D
:100A30000021D52000F0EAF80021502000F0E6F86F
:100A40000021A82000F0E2F800213F2000F0DEF8AD
:100A50000021D32000F0DAF80021084600F0D6F893
:100A60000021402000F0D2F800218D2000F0CEF8C7
:100A70000021142000F0CAF80021202000F0C6F860
:100A80000021022000F0C2F80021A12000F0BEF8F1
:100A90000021C02000F0BAF80021DA2000F0B6F8FA
:100AA0000021122000F0B2F80021812000F0AEF801
:100AB0000021EF2000F0AAF80021D92000F0A6F8CC
:100AC0000021F12000F0A2F80021DB2000F09EF8C8
:100AD0000021302000F09AF80021A42000F096F8C0
:100AE0000021A62000F092F80021AF2000F08EF83F
:100AF000FFF72AFF7CBD00000010024000004242C8
:100B000070B5104E002505F1B000C0B2002100F014
:100B10007DF80021084600F079F80021102000F04F
:100B200075F8002406EBC4000121405D00F06EF86A
:100B3000641CE4B2802CF5D36D1CEDB2082DE2D319
:100B400070BD0000FE0000202DE9F04F203A9846CD
:100B50000D468346894602F0FF0A00262EE0B8F1D2
:100B60000C0F08D0174901EB0A100027845D2006FE
:100B700007D5099A08E014490AEB4A0001EB800006
:100B8000F3E7099890B1002229465846FFF702FF83
:100B90006D1C6006EDB2040EA5EB0901414507D1BD
:100BA0000BF101004D4600F0FF0B05E00122EBE7E1
:100BB0007F1CFFB2082FDAD3761CF6B24645CED39F
:100BC000BDE8F08FE52F0008712B0008F8B5164638
:100BD0000D460446012714E07A2C02D90024103572
:100BE000EDB23A2D03D900242546FFF7ADFE00975C
:100BF00032780C2329462046FFF7A6FF0834E4B2DA
:100C0000761C30780028E7D1F8BD000030B500230D
:100C10000E4A012411B1C2F8A04201E0C2F8A0328C
:100C20000021C2F89432050602D5C2F8984201E0CC
:100C3000C2F89832C2F894424006491C000EC9B26C
:100C40000829EED3C2F8A04230BD000000004242A5
:100C5000014908627047000000000E42044A002962
:100C6000116801D0014300E081431160704700002A
:100C700030380240044A0029116801D0014300E0E5
:100C800081431160704700004038024070B5204B2E
:100C90001968204C11F00C0104D06610042903D00F
:100CA000082903D004601BE0066019E0184A121FEF
:100CB0001168C1F38055116801F03F0115B1B6FB11
:100CC000F1F101E0B4FBF1F114681268C4F3881487
:100CD0006143C2F30142521C5200B1FBF2F10160C8
:100CE00019680F2202EA11110B4A545C0168E140B5
:100CF00041601C68072505EA9424145D21FA04F478
:100D000084601B6805EA5333D25CD140C16070BD7A
:100D1000083802400024F400580000200549002251
:100D20000A700A70012802D0042801D10520087039
:100D300070470000703802400CB50022274900922D
:100D40000192086840F4803008604FF4A0430868BE
:100D500000F4003001900098401C0090019810B9F8
:100D600000989842F3D10868800334D5012001909F
:100D70001A484030026842F0805202601848026807
:100D800042F440420260154808300268026002687E
:100D900042F400420260026842F4A0520260031F63
:100DA000104A1A600A6842F080720A600A6892016A
:100DB000FCD50D4940F205720A60016821F003017B
:100DC0000160016841F0020101600168C1F3810125
:100DD0000229FAD10CBD01920CBD0000003802407E
:100DE0000070004008544007003C02404FF0E021F2
:100DF0000428086903D020F004000861704740F01F
:100E00000400FAE710B501F061FC012803D0BDE849
:100E1000104001F0F9B910BD124810B5016841F455
:100E2000700101601048016841F0010101600E4A43
:100E300000210832116002680C4B1A400260031D49
:100E40000B4A1A60026822F48022026006480C30C5
:100E50000160FFF771FF03494FF0006080390860BF
:100E600010BD000088ED00E000380240FFFFF6FEF4
:100E700010300024F8B51C4C40F22551204600F0FB
:100E800045F878B3204600F0CFF8184DC4B20026DC
:100E900028780A2800D12E70154829780246445433
:100EA00000210846FFF792FE2878303C401C28704D
:100EB000092C15D8E0B268704FF47A7110FB01F27A
:100EC0000C4C009100230421206801F01BFE01F06E
:100ED0000BFC0246009600230121206801F012FE5F
:100EE000FFF70EFE0020F8BD004800404000002043
:100EF000F4000020040000200029818902D041F480
:100F0000005101E021F400518181704770B501F07A
:100F10001F0501260024C1F3421306FA05F2012B36
:100F20000FD0022B0FD0838A4FEA11210088134281
:100F300006FA01F600EA060001D000B101242046BD
:100F400070BD8389F0E7038AEEE710B5C1F3421361
:100F500001F01F040121A140012B07D0022B07D073
:100F60001430002A026805D00A4304E00C30F8E788
:100F70001030F6E78A43026010BD00007FB50446DA
:100F8000008A0D46C98820F4405001432182A0897F
:100F900041F20C618843A9882A8911436A89024376
:100FA0001143A181A08A20F44071A8890843A0823E
:100FB0006846FFF76BFE1A48844202D01948844203
:100FC00001D1039800E00298A189090400EBC00157
:100FD00001EB0010296801D5490000E08900B0FB51
:100FE000F1F06422B0FBF2F109010B096FF0180572
:100FF0006B4300EB8300A3891D044FF0320306D539
:1010000003EBC000B0FBF2F000F0070005E003EBDB
:101010000010B0FBF2F000F00F00084320817FBD0C
:1010200000100140001401408088C0F308007047A0
:10103000FEE700004FF4FA670A4EDFF82C803C46CA
:10104000BD104046FFF7FBFBC005FAD4304600F068
:101050009DF92846874200D12046074600F014F843
:10106000EFE70000D8350008000C0240054C41F6BF
:101070005835D4F8A802C143C4F8A812284600F095
:1010800031F8F6E7008040424FF47A714843B0FBF4
:10109000F1F208B5002003460090034804210068DF
:1010A00001F030FD08BD00007000002010B50446BE
:1010B0000420FFF79BFE0A484FF47A71047014FB7A
:1010C00001F1012242804FF0E020026942F0020269
:1010D00002614161016941F00101016110BD00003F
:1010E0006800002070B5044601F0F0FA01280BD02A
:1010F000094D6888844203D3B4FBF0F000F032FF5E
:101100006888B4FBF0F070BD4FF47A706043BDE8BE
:10111000704000F003B800006800002070B54FF088
:10112000E02500216C69094AAB6912785043AA692D
:101130009A42FCD002D2A3EB020302E0A4EB020627
:101140003344194413468142F1D370BD6800002036
:1011500070B5054600244FF47A7603E03046FFF779
:10116000DDFF641CAC42F9D370BD30380A2802D3CD
:101170004FF4FA707047FA2110FB01F0704700003D
:101180000949A0F1410201EB8001A1F58051062A35
:1011900002D8D1F8FC0E70476138062802D8D1F881
:1011A000980E704700207047080000202B2807D0B9
:1011B0002C2803D02E2805D05F2805D005207047A5
:1011C00000207047142070471E20704710B501F0B2
:1011D0007DFA012803D0BDE8104001F085BA01482E
:1011E000406810BD680000200348D0F8A812C94329
:1011F000C0F8A81270470000000042427CB500F021
:101200003FFDFFF7AFFAFFF7E3FBFFF791FA4FF46B
:10121000E13000F041FD04241A4DA60100233246BE
:1012200019A11C48CDE9004501F0F6F900F046FF90
:101230000023324618A11B48CDE9004501F0ECF926
:1012400000F03CFF0023324617A11A48CDE90045C3
:1012500001F0E2F900F032FF0023324616A11948EE
:10126000CDE9004501F0D8F900F028FF002332460F
:1012700015A11848CDE9004501F0CEF900F01EFF98
:1012800000207CBD0000002073746172745F746183
:10129000736B00001D1C000862757A7A65725F74BA
:1012A00061736B006D10000873686F775F74617312
:1012B0006B000000DD1B0008627574746F6E5F7454
:1012C00061736B0035100008756172745F7461732F
:1012D0006B000000491D00083EB512A007C88DE84C
:1012E0000700FFF747FB00216A460846FFF76EFC40
:1012F0000F4C10A110482278FFF71AF80E486278B8
:101300000CA10A30FFF714F80B4A28211420FFF72C
:101310005DFC094A14210A320846FFF757FCFFF723
:10132000EFFB3EBD416E67205969205875616E0024
:101330007400002025640000FE0400202DE9F04721
:1013400005004FF0000418D00F4E01EB4100A046FD
:101350004FF00109C0EBC1174FEA550AB4EBC70FB4
:1013600010D2C6F8A8925046FFF7D8FEC6F8A88259
:101370005046FFF7D3FE2C44F0E7BDE8F04708469F
:10138000FFF7E6BEBDE8F0870080404270B5044636
:1013900017E0641CFFF7F4FE02462078002813D003
:1013A000641CFFF7E2FE0146207800280CD0641C84
:1013B000FFF7FCFE05461046FFF7C0FF2846FFF783
:1013C000ADFE20780028E4D170BD00002DE9F04189
:1013D0001E4D0F460446EE682868001D00F0D6FC3E
:1013E00038B9286890F82C10012088402969814379
:1013F0002961601C15D1A7B115492A684868906019
:101400002B688268DA602A688368121D5A602A682D
:10141000121D8260286841610868401C0860BDE8B0
:10142000F08128683444B4424460296805D2E86BEE
:10143000BDE8F041091D00F0D1BCA86B091D00F00A
:10144000CDFCA86A8442EAD2AC62E8E778000020CA
:10145000240800202DE9F041044600F0E3FC354E5D
:10146000B068401CB0603068334F10B1706930B361
:101470002BE03460B068012827D1002505EB8500FA
:1014800007EB800000F09CFC6D1C202DF6D32B4850
:1014900000F096FC2948143000F092FC27482830D0
:1014A00000F08EFC25483C3000F08AFC2348503088
:1014B00000F086FC2148B0631430F06305E030682A
:1014C000E16AC06A884200D83460706A0121401C19
:1014D00070626064E06A326981401143316100EBFF
:1014E000800007EB80004068A0608168E16082684E
:1014F000211D51608160E06A00EB800007EB8001F4
:10150000616157F82010491C47F8201000F09EFC3C
:10151000706900280CD03068E16AC06A884207D23E
:1015200007494FF080500860BFF34F8FBFF36F8FB4
:10153000BDE8F0817800002054050020D407002089
:1015400004ED00E010B500F06DFC0E4C2068A0B971
:101550000D4800F035FC0C48143000F031FC0A480E
:10156000E0601430206100221021052000F062FEAE
:10157000206010B105A100F0B5FCBDE8104000F0FE
:1015800065BC0000B800002038080020546D72517E
:101590000000000030B4026C0B46002A0BD0C1687A
:1015A0001144C1608468A14201D30168C16030BCAC
:1015B0001846FEF741BF30BC70472DE9F041856BFE
:1015C000174604460026026C82B1C7B1E068FEF7F8
:1015D00033FFE168206C091AE1602268914202D26F
:1015E000A168081AE060022F16D017E02068A8B999
:1015F000A06801F009F906460020A0600EE06068CE
:10160000FEF71AFF216C606808446060A168884298
:1016100004D32068606001E005B16D1E6D1CA563F8
:101620003046BDE8F08110B50446006B00F018FCB0
:101630002046BDE8104000F013BC00000E484FF4F7
:10164000A041420706D0C01D0B4920F00700411AF7
:10165000C1F5A041094B00220144C3E90002083949
:10166000143B21F0070119604A600A600A1AC0E9B8
:1016700000129A605A60704760080020E000002065
:10168000134E144DA6F52F774FF08058DFF8489091
:1016900011E000F0C7FBF068C468201D00F076FB85
:1016A000A868401EA8606868401E686000F0CEFB15
:1016B0002046FFF7B8FF68680028EAD1386801289B
:1016C000F9D9C9F80080BFF34F8FBFF36F8FF2E7EE
:1016D000100800207800002004ED00E02DE9F0471C
:1016E0000E46DDE909841746824691009946089D19
:1016F000A522206BFEF717FF6FF00301206B01EBB3
:101700008701084420F0070766B100202218315CE9
:1017100082F83410315C11B1401C1028F6D300203F
:1017200084F84300202D00D31F25E562201DE564C9
:1017300000F051FB04F1180000F04DFB2461C5F1ED
:1017400020006462A0614A465146384600F030FAF3
:101750002060B8F1000F01D0C8F80040BDE8F08764
:1017600030B5114900E011460A688242FBD34B684C
:101770005C18844203D140681844486008464368B6
:101780001C18944209D1084C143C2468A24209D088
:1017900052681A4442600A6812680260814200D0AE
:1017A000086030BD0460F9E7E000002070B5002457
:1017B00041600B4D0061914206D8D11A8269914275
:1017C00006D2011D286907E09A4203D2994201D34B
:1017D000012403E0011DE86800F000FB204670BD15
:1017E000B800002010B5044600F01CFBA06B20B12F
:1017F000002400F02BFB204610BD0124F9E7F1B5D1
:1018000000260098846CA06BA06BE16B884210D21C
:1018100094F94550002269462046FFF7CEFE064661
:10182000681C08D000F0C6FA854202D26D1C84F80C
:1018300045503046F8BD606A0028FAD004F1240013
:1018400001F02AF80028F4D00126F2E770B5064628
:101850000D480D46C068C068C468201D00F096FAA7
:1018600094F82800410705D52A463146204600F065
:10187000B5F803E000F0FE0084F828002046216A55
:10188000BDE8704008470000B800002070B586B081
:10189000364E61E00098002806DADDE90201019A7F
:1018A00090470098002857DB029C606910B1201D0A
:1018B00000F06CFA04A800F0B3F8054600980A2876
:1018C0004AD2DFE800F0490505282E3D0505282EFF
:1018D00094F828002A4640F0010084F82800019876
:1018E000A169034601442046FFF760FF38B394F82E
:1018F0002800410707D50198A1692A4601442046DE
:1019000000F06CF803E000F0FE0084F82800216A83
:101910002046884720E014F8280F00F0FE002070D1
:101920001AE094F828002B4640F0010084F82800C3
:101930000198A06141191A462046FFF737FF0BE0D6
:1019400094F82800810703D4204600F089FA03E0C8
:1019500000F0FE0084F8280000226946306800F09C
:10196000B5FD002896D106B070BD0000B80000207B
:10197000F8B50D46064600F0CDFB684600F050F87D
:101980000446009810B100F0EDFFF8BD1148ADB16C
:1019900001690968D9B10025311B2A46006800F0A9
:1019A000BFFA00F0DFFF0028EFD10B494FF0805065
:1019B0000860BFF34F8FBFF36F8FF8BDA642EBD81F
:1019C00000F0D0FF21463046FFF740FFF8BD01256B
:1019D000E2E70000B800002004ED00E070B5164614
:1019E0000C46054604E0A869296A0444284688474D
:1019F000A8692346011932462846FFF7D7FE00287A
:101A0000F1D170BD0548816B096821B1816BC9684E
:101A10000968816270474FF0FF31FAE778000020D3
:101A20002DE9F041064600F05FFE0E4D0446A86821
:101A3000844214D24FF0FF3704E0C0683946006892
:101A4000FFF704FFE86801680029F6D12969C5E9B4
:101A50000310012030602046AC60BDE8F08100201A
:101A6000F8E70000B8000020502080F31188BFF391
:101A70004F8FBFF36F8FFEE7084CE068016839B104
:101A8000002139B10020FFF773FFFFF7FFFEF4E7F5
:101A90000121F6E7C0680068F5E70000B800002003
:101AA0002DE9F041044600F0BDF994F9455004F1E8
:101AB00024060FE0A06C18B12046FFF7A0FE04E05A
:101AC000606A48B1304600F0E7FE08B100F0BEFAA7
:101AD0006D1E6DB2002DEDDC4FF0FF3684F84560D1
:101AE00000F0B4F900F09EF994F9445004F11007A5
:101AF00009E0206948B1384600F0CEFE08B100F098
:101B0000A5FA6D1E6DB2002DF3DC84F84460BDE8CB
:101B1000F04100F09BB9000070B50446002500F0CC
:101B2000F9FA224E306808B9FFF788FDCCB304F00B
:101B30000700C0F11000C1438C4232D8211800299F
:101B40002FDD706881422CD8184A14321046046880
:101B500001E0224604466068884202D220680028DC
:101B6000F7D1306884421CD0156820681060606826
:101B70000835421A102A04D9601842606160FFF7E4
:101B8000EFFD61687068401A7060B268904200D2E0
:101B9000B06041F00040606000202060F068401CB0
:101BA000F06000F0DFFE284670BD0000CC00002091
:101BB00010B5031F4FF080741C601B1F21F0010142
:101BC0001960191F044B0B6014390A60091F6FF06C
:101BD000020244380A6010BD691A000808B5FFF710
:101BE000F5FA0D4C4FF47A760025009014216846E2
:101BF00000F040FD2078401C2070304600F0B2F923
:101C000020783C2805D16078401C60702570FEF774
:101C10009BFEFFF761FBE9E7740000207CB500F054
:101C200001F9002503244FF400762B4632460BA120
:101C30000D48CDE9004500F0EFFC002332460BA132
:101C40000D48CDE9004500F0E7FC0C48006800F0C5
:101C5000A5F9BDE87C4000F0F9B800006275747425
:101C60006F6E5F7461736B0035100008756172747C
:101C70005F7461736B000000491D000800000020C4
:101C800010B54FF44070FEF755FEA820FFF70EFA8E
:101C9000BDE81040FEF7DABD2DE9F041804688B07E
:101CA00001210420FEF7DAFF01218804FEF7E2FF9C
:101CB000234F07220A213846FEF7B1FD07220B21E8
:101CC0003846FEF7ACFD02258DF8145000244FF481
:101CD00040608DF8164004908DF8155001268DF85F
:101CE000176004A93846FEF75EFD27208DF818001E
:101CF0008DF819508DF81A408DF81B6006A8FEF774
:101D0000E7FDADF80440ADF80640ADF80840ADF889
:101D10000C400C200B4CADF80A00CDF80080694651
:101D20002046FFF72BF9012240F225512046FFF70C
:101D30000CF901212046FFF7DFF808B0BDE8F0817B
:101D4000000802400048004086B014220949684655
:101D5000FEF7B7FB6C464FF47A750022A05C00F0EA
:101D60000BF8521CD2B2112AF8D32846FFF7BAF961
:101D7000F3E70000602B000803490880081F018872
:101D80004906FCD57047000004480040D0E9013204
:101D900001699A60D0E901235A604A68824201D100
:101DA00082684A60002202610868401E0860086874
:101DB00070470000014880687047000078000020EC
:101DC00000F108014FF0FF32C0E90112C16001616A
:101DD00000210160704700210161704730B50C6837
:101DE000621C02D000F1080202E0026904E01A4617
:101DF00053681D68A542FAD953684B6099608A60A0
:101E0000516008610168491C016030BD42684A6048
:101E100093688B6093685960916008610168491C00
:101E200001607047502080F31188BFF34F8FBFF3DC
:101E30006F8F04494868401C4860012801D102485E
:101E400000687047E800002004ED00E0034948689E
:101E5000401E486001D180F311887047E8000020DF
:101E600070B500281BD0A0F108046068002816DABD
:101E70002168002913D120F00040606000F04AF989
:101E8000074D60686968084468602046FFF768FC91
:101E90002869401C2861BDE8704000F063BD70BD3A
:101EA000CC0000204FF0E020002101618161054954
:101EB0004FF47A720968B1FBF2F1491E41610721C2
:101EC000016170474400002010B5FEF70DFA10289C
:101ED00003D300F1E02090F8F0030148006810BD42
:101EE0000CED00E070B50023002915D00B4D002249
:101EF00005EBC2046668864202D105EBC20307E027
:101F00001BB955F8326006B92346521C082AEFD394
:101F1000002B01D0C3E9001070BD000014050020A3
:101F200070B515460E460446FFF77CFF94F9441041
:101F30000020491C01D184F8440094F94510491C43
:101F400001D184F84500FFF781FFA06B28B92A462C
:101F5000314604F1240000F091F82046BDE87040BD
:101F6000FFF79EBD10B502000BD00A48406B00F091
:101F7000D1F800211046FFF729FA00F0F3FC002801
:101F800007D105494FF080500860BFF34F8FBFF372
:101F90006F8F10BD7800002004ED00E070B504469E
:101FA000FFF740FF214D04B92C68201DFFF7EEFE1E
:101FB00058B9E06A1E4A00EB800152F8211021B99D
:101FC00001218140286988432861A06A18B104F181
:101FD0001800FFF7DBFE686A401C686228688442CC
:101FE00007D1211D1348FFF711FF6868401C686086
:101FF00004E0A868401EA860FFF704FDFFF726FF75
:102000002868844202D02046FFF70DFB686900284B
:102010000BD02868844208D1686B07494FF0805084
:102020000860BFF34F8FBFF36F8F70BD7800002043
:10203000540500201008002004ED00E002490A6A5F
:102040000260C968416070477800002001490120A2
:10205000C861704778000020024610B506480C465B
:10206000016810461831FFF7B9FE2046BDE8104060
:102070000121FFF7ABB9000078000020F0B40E4B4F
:102080000C4641681D68E9618D681E6835621D68EF
:102090008E68183575601D6818358D6019688862FE
:1020A0000168491C01600AB14FF0FF342046F0BCC2
:1020B0001146FFF78BB90000780000207CB511486D
:1020C0000025CDE900502B4682220FA1104800F0D8
:1020D000A3FA0C4C2C3C012812D100F0F5FC01288D
:1020E0000ED1502080F31188BFF34F8FBFF36F8F55
:1020F0004FF0FF30A06201206061E56000F036F82B
:10210000206B7CBDA400002049444C450000000029
:10211000811600080248416B491C4163704700006A
:10212000780000200F4A506B10B10120D061704739
:102130000020D06110690C49B0FA80F0C0F11F0096
:1021400000EB800051F8203001EB800000F1080323
:10215000416849684160994201D149684160C86855
:102160001060704778000020540500201CB52248FC
:1021700001680068214908780190FF2008700878FC
:102180008DF800009DF800009DF800009DF800000B
:102190001B4C00F0500020700720A06007E0A068F2
:1021A000401EA0609DF8000040008DF800009DF8E2
:1021B00000000006F3D4207A000200F4E060A06082
:1021C000019808700C482030016841F470010160EA
:1021D000016841F070410160FFF764FE002060601B
:1021E000FEF74AF80748016841F040410160FEF7F8
:1021F0002FF800201CBD000000ED00E000E400E02E
:10220000E800002034EF00E010B5502080F3118882
:10221000BFF34F8FBFF36F8F00F06CFA18B1044912
:102220004FF080500860002080F3118810BD00003E
:1022300004ED00E02DE9F04117460E4605004FF091
:1022400000041CD0601EB0FBF5F0B04217D305FBB4
:1022500006F010F1550F12D85430FFF75DFC040062
:102260000DD004F154006EB12060C4E90F56204631
:10227000012100F009F884F850700021A164204683
:10228000BDE8F0812460F0E72DE9F0410E4604003E
:102290004FF001053BD0E06BC0B3AF1EB7FBF0F1D0
:1022A000206C814233D3FFF7BDFDD4E90F202168B4
:1022B00002FB0011A1600021A163216861600A4650
:1022C000D4E90F01401E00FB01212046E16000F827
:1022D000447F477004F1100046B1FFF771FD04F12F
:1022E0002400FFF76DFDFFF7B1FD11E02169002922
:1022F000F9D000F0D1FA0028F5D007494FF080500E
:102300000860BFF34F8FBFF36F8FECE7FFE7002547
:102310002846BDE8F081000004ED00E02DE9FF4F04
:1023200083B099468B460446002600F0CFF9B246AA
:102330004FF08057DFF8F880FFF774FDA06BE16B7A
:10234000884206D3B9F1020F03D0059820B336B303
:1023500029E0A56B4A4659462046FFF72EF9A16CA5
:1023600039B1B9F1020F00D185B92046FFF747FA1C
:1023700005E0616A19B104F1240000F08DFA28B17A
:10238000C8F80070BFF34F8FBFF36F8FFFF75EFD8C
:10239000012007B0BDE8F08FFFF758FD21E0684647
:1023A000FFF74CFE0126FFF751FDFFF7B3FEFFF7E5
:1023B00039FD94F94400401C01D184F844A094F9FB
:1023C0004500401C01D184F845A0FFF73FFD05A959
:1023D000684600F0F5F830B12046FFF761FB00F0E9
:1023E000C1FA0020D5E7FFF71DFDA06BE16B884225
:1023F00001D1012500E00025FFF728FD95B104F18A
:1024000010000599FFF728FE2046FFF749FB00F072
:10241000A9FA002890D1C8F80070BFF34F8FBFF31E
:102420006F8F89E72046FFF73BFB00F09BFA83E7BD
:1024300004ED00E02DE9F047984616468A4604462A
:10244000FFF742FD5020EFF3118780F31188BFF3AF
:102450004F8FBFF36F8FA06BE16B884207D3B8F14A
:10246000020F04D0002087F31188BDE8F08794F9AB
:102470004550D4F83890424651462046FFF79DF823
:10248000681C08D0FFF796FC854202D26D1C84F8C8
:1024900045500120E7E7A06C012548B1B8F1020FD3
:1024A00002D1B9F1000FF4D12046FFF7A8F906E0F8
:1024B000606A0028EDD004F1240000F0EDF9002856
:1024C000E7D0002EE5D03560E3E700002DE9F747BF
:1024D00083B08A460446002600F0F8F800274FF043
:1024E0008058DFF8D890FFF79DFCA56BC5B1514629
:1024F0002046FFF74FF86D1EA563206950B104F127
:10250000100000F0C9F928B1C9F80080BFF34F8F5F
:10251000BFF36F8FFFF79AFC012006B0BDE8F0878C
:10252000059808B11EB106E0FFF790FC27E0684669
:10253000FFF784FD0126FFF789FCFFF7EBFDFFF7AE
:1025400071FC94F94400401C01D184F8447094F962
:102550004500401C01D184F84570FFF777FC05A9C0
:10256000684600F02DF8002820460AD0FFF798FAB8
:1025700000F0F8F92046FFF735F90028B3D0002025
:10258000CBE7FFF72FF990B104F124000599FFF78D
:1025900063FD2046FFF784FA00F0E4F90028A2D199
:1025A000C9F80080BFF34F8FBFF36F8F9BE72046C2
:1025B000FFF776FA00F0D6F995E7000004ED00E0A9
:1025C0002DE9F0410D460446FFF72CFC114EF26850
:1025D00063682868D11A471C0AD02768D6F820C03B
:1025E0000026674506D0934204D801242E600BE0F4
:1025F000002409E0884205D9401A28602046FFF7E8
:102600001DFDF5E701242E60FFF720FC2046BDE804
:10261000F0810000780000202DE9FF5F8346DDE9AE
:102620000E87994616468A469000FFF775FA050010
:102630001DD05C20FFF770FA040015D05C21FDF777
:102640009CFF25630021CDE90241CDE900874B467F
:10265000324651465846FFF741F82046FEF7FAFE4B
:10266000012004B0BDE8F09F2846FFF7F9FB4FF0CA
:10267000FF30F6E770B5134A03460D460024506B51
:10268000FFF748FDD26818684119904202D9884284
:1026900002D804E0884201D8914200D9012419608F
:1026A0001CB1881A0021FEF791FE00F05BF938B9E1
:1026B00005494FF080500860BFF34F8FBFF36F8F15
:1026C000204670BD7800002004ED00E00548416917
:1026D00019B1406B18B100207047012070470220EB
:1026E00070470000780000200148C0687047000073
:1026F000780000202DE9F041414E0025706B28B193
:10270000B069401CB0612846BDE8F081F468641CE3
:10271000F4600AD1B06B0068B06BF16BB163F06329
:10272000306A401C3062FFF76DF9B06ADFF8D4E020
:1027300084420BD34FF0000CB06B0068A0B1B06BBB
:10274000C068C1684868844211D2B0623068C06A0B
:1027500000EB80005EF82000012800D90125F06917
:102760000028D0D00125CEE74FF0FF30EDE7D1E9CA
:10277000023248699A60D1E902235A6043680A1D0F
:10278000934201D1CB684360C1F814C003685B1E5B
:102790000360886A88B1D1E907379F60D1E90737BC
:1027A0007B60476801F118039F4201D10B6A4360C7
:1027B000C1F828C003685B1E0360C86A012337693B
:1027C00083403B43336100EB80000EEB80004068A8
:1027D00088608368CB6083685A608260C86A00EB57
:1027E00080000EEB80024A615EF82020521C4EF8F9
:1027F0002020C86A3168C96A88429DD901259BE7B3
:10280000780000205405002070B504004FF000004F
:102810003CD01F4D2968216D491E2165E36CE26A99
:102820009A4233D0002931D1201DFFF7AFFA0121A0
:1028300030B994F82C002A6901FA00F082432A6129
:10284000E06CE062C0F12000A061E06A2A6981408A
:10285000114329610F4A00EB800002EB80004068C1
:10286000A0608168E1608368211D59608160E06A31
:1028700000EB800002EB80006061E06A00EB80000A
:1028800052F82010491C42F82010012070BD0000B1
:10289000780000205405002070B5C068C068D0E9F9
:1028A0000732816A9A60D0E907235A604B6800F1C9
:1028B0001802934201D1036A4B60002585620B68C0
:1028C0005B1E0B60244B596B012499B1234D696841
:1028D000C1618E6806628E6872608A60856229684E
:1028E000491C2960C06A1968C96A884231D9012027
:1028F000DC6170BDD0E902624169B260D0E90226B4
:1029000072604E68021D964201D1C6684E604561F4
:102910000D686D1E0D60C16A1E6904FA01F535432C
:102920001D610F4D01EB810105EB8101496881605B
:102930008E68C6608E6872608A60C16A01EB810130
:1029400005EB8102426155F82120521C45F82120F7
:10295000C8E7002070BD000078000020FC070020C0
:10296000540500202DE9F047404D0024A146686B36
:10297000FFF758FA686B401E6863686B002870D1D7
:10298000A868DFF8ECC000264FF00108E8BB68E05B
:10299000DCF80C00C468D4E90721A06A9160D4E98E
:1029A00007125160426804F118018A4201D1216A7C
:1029B0004160A6620168491E0160D4E90221606994
:1029C0009160D4E9021251604268211D8A4201D10E
:1029D000E268426066610268521E0260E06A2F6926
:1029E000434608FA00F23A432A61224A00EB80008B
:1029F00002EB80004068A0608768E76087687960C4
:102A00008160E06A00EB800000E00DE002EB8001F5
:102A1000616152F82010491C42F82010E06A2968D0
:102A2000C96A884200D3EB61DCF800000028AFD10E
:102A30000CB1FEF7E7FFAC693CB14746FFF75AFE21
:102A400000B1EF61641EF9D1AE61E86948B10A498D
:102A50004FF080504FF001090860BFF34F8FBFF374
:102A60006F8FFFF7F3F94846BDE8F0877800002044
:102A7000FC0700205405002004ED00E02DE9F0479C
:102A800080461F4615460E462C20DDF82090FFF7A5
:102A900043F8040014D0002084F82800FEF752FD0B
:102AA00004F11801C4F8008081E8C002201DFFF77E
:102AB00092F92DB194F8280040F0040184F8281010
:102AC0002046BDE8F08700001CB50024FEF73AFD63
:102AD0000848006860B107491F20091DCDE90001C1
:102AE00000234FF4827204A10548FFF795FD0446C8
:102AF00020461CBDB8000020546D72205376630040
:102B0000791A00082DE9FF41114D1F4603462C6834
:102B100000200A9E002C0ED08DE80E0006290FDA48
:102B2000FFF7D4FD02284FF0000307D000226946CA
:102B30002868FFF7F3FB04B0BDE8F0813246F6E702
:102B400000233A4669462046FFF774FCF3E700008D
:102B5000B80000204FF04070E1EE100A704700000E
:102B600020416E67205969205875616E2000000071
:102B70000000000000000000000000000000000055
:102B8000003F400000000000000000300040003026
:102B9000004000000009000BC03D000BC03D0009D3
:102BA0000018C024407FE02240318000001800243B
:102BB000C01B000D803240018003801C4027401C58
:102BC000800740004010006000000000000000008E
:102BD000000000000000001F802040402000004056
:102BE0002020401F8000000000090006001F800612
:102BF0000009000000040004003F800400040000FD
:102C0000000010006000000000000000000400044C
:102C10000004000400040000000000004000000068
:102C20000000000000002001C00600380040000045
:102C3000001F802040204020401F80000000001026
:102C4000403FC000400000000018C0214022402446
:102C5000401840000010802040244024401B800089
:102C60000002000D0011003FC0014000003C802424
:102C70004024402440238000001F8024402440340E
:102C800040038000003000200027C03800200000F2
:102C9000001B802440244024401B8000001C002294
:102CA000C0224022401F80000000000000084000B9
:102CB00000000000000000000004600000000000B0
:102CC00000000004000A00110020804040090009B3
:102CD00000090009000900000000004040208011A8
:102CE000000A0004001800200023402400180000FF
:102CF000001F802040274029401F4000000040075F
:102D0000C039000F0001C0004020403FC0244024D3
:102D1000401B8000001F8020402040204030800069
:102D20000020403FC0204020401F80000020403F46
:102D3000C024402E4030C0000020403FC024402E20
:102D400000300000000F001080204022403380023D
:102D50000020403FC0040004003FC020402040202D
:102D6000403FC02040204000000060202020203F45
:102D7000C02000200020403FC024400B0030C02075
:102D80004020403FC020400040004000C03FC03CC9
:102D90000003C03C003FC0000020403FC00C402367
:102DA000003FC020001F802040204020401F8000A6
:102DB0000020403FC024402400180000001F802154
:102DC00040214020E01FA0000020403FC0244026BA
:102DD0000019C0004018C024402440224031800027
:102DE00000300020403FC020403000000020003F65
:102DF00080004000403F80200020003E0001C007CE
:102E00000038002000380007C03C0007C038000030
:102E100000204039C0060039C020400000200038A2
:102E20004007C0384020000000304021C026403814
:102E30004020C00000000000007FE0402040200053
:102E400000000070000C0003800040000000004003
:102E50002040207FE0000000000000200040002013
:102E60000000000000001000100010001000100012
:102E70001000000000400000000000000000000200
:102E8000800540054003C0004020003FC0044004CE
:102E9000400380000000000380044004400640001E
:102EA0000000000380044024403FC00040000003B5
:102EB000800540054003400000000004401FC0247E
:102EC0004024402000000002E00550055006500458
:102ED0002020403FC00440040003C0004000000424
:102EE0004027C00040000000000010001004102720
:102EF000E00000000020403FC00140070004C00483
:102F000040204020403FC000400040000007C00477
:102F10000007C0040003C00000044007C0044004D0
:102F20000003C00040000003800440044003800010
:102F300000041007F0045004400380000000000368
:102F4000800440045007F00010044007C002400411
:102F50000004000000000006400540054004C000D9
:102F600000000004001F800440004000000400072F
:102F7000800040044007C000400400070004C00176
:102F80008006000400060001C0070001C006000022
:102F900000044006C0010006C00440000004100701
:102FA0001004E00180060004000000044005C00693
:102FB00040044000000000000004007BE0402000CE
:102FC00000000000000000FFF000000000000040D2
:102FD000207BE00400000000004000800040002052
:102FE0000020004000000000000000000000000081
:102FF00000000000000000000000001FCC000C00DA
:1030000000000000000000080030006000080030F0
:103010000060000000022003FC1E20022003FC1EB2
:10302000200220000000000E1811043FFF10840C45
:1030300078000000000F0010840F3800C0077818D7
:10304000840078000000780F8410C411240E9800CA
:10305000E400840008080068007000000000000020
:10306000000000000000000000000007E018182029
:103070000440020000000040022004181807E0008D
:1030800000000000000240024001800FF0018002B9
:1030900040024000000080008000800FF8008000A7
:1030A00080008000000001000D000E000000000004
:1030B0000000000000000000800080008000800010
:1030C00080008000800000000C000C000000000068
:1030D00000000000000000000600180060018006EB
:1030E0000018002000000007F00808100410040871
:1030F0000807F000000000080408041FFC0004009A
:10310000040000000000000E0C10141024104411E4
:10311000840E0C000000000C18100411041104129D
:10312000880C700000000000E00320042408241F25
:10313000FC0024000000001F9810841104110410EA
:103140008810700000000007F008881104110418AE
:10315000880070000000001C00100010FC13001C10
:10316000001000000000000E38114410841084117B
:10317000440E38000000000700088C10441044087A
:103180008807F00000000000000000030C030C00A2
:103190000000000000000000000001010600000027
:1031A0000000000000000000800140022004100820
:1031B0000810040000022002200220022002200247
:1031C0002002200000000010040808041002200162
:1031D000400080000000000E001200100C106C1067
:1031E000800F00000003E00C1813E4142417C40837
:1031F0002807D000000004003C03C41C4007400026
:10320000E4001C000410041FFC1104110411040E3E
:10321000880070000003E00C181004100410041063
:10322000081C10000010041FFC10041004100408F7
:103230000807F0000010041FFC1104110417C4104B
:10324000040818000010041FFC1104110017C0101E
:10325000000800000003E00C181004100410441CC7
:10326000780040000010041FFC10840080008010D3
:10327000841FFC10040000100410041FFC10041034
:10328000040000000000030001100110011FFE10E7
:10329000001000000010041FFC11040380146418C7
:1032A0001C1004000010041FFC10040004000400A3
:1032B00004000C000010041FFC1F0000FC1F001F76
:1032C000FC1004000010041FFC0C04030000E010BC
:1032D000181FFC100007F008081004100410040860
:1032E0000807F0000010041FFC10841080108010EC
:1032F000800F00000007F0081810241024101C088C
:103300000A07F2000010041FFC1104110011C01183
:10331000300E0C000400000E1C11041084108410E8
:10332000441C3800001800100010041FFC1004108A
:10333000001800000010001FF81004000400041022
:10334000041FF8100010001E0011E0001C00701394
:10335000801C0010001FC0103C00E01F0000E010A7
:103360003C1FC000001004180C163401C001C01628
:1033700034180C100410001C00130400FC13041C6F
:1033800000100000000804101C1064108413041CBA
:1033900004101800000000000000007FFE40024002
:1033A0000240020000000030000C000380006000BA
:1033B0001C0003000000004002400240027FFE00AB
:1033C000000000000000000000200040004000401D
:1033D00000200000000001000100010001000100C8
:1033E000010001000100004000400020000000003A
:1033F0000000000000000000980124014401440185
:103400004400FC000410001FFC00880104010400BB
:1034100088007000000000007000880104010401B1
:1034200004008800000000007000880104010411FD
:10343000081FFC0004000000F8014401440144019D
:103440004400C800000000010401040FFC11041135
:103450000411001800000000D601290129012901EA
:10346000C90106000010041FFC00840100010001D6
:103470000400FC000400000104190419FC0004000D
:1034800004000000000000000300010101190119FF
:10349000FE0000000010041FFC0024004001B401E5
:1034A0000C010400000000100410041FFC000400C4
:1034B0000400000000010401FC0104010001FC0102
:1034C00004010000FC010401FC0084010001000172
:1034D0000400FC0004000000F801040104010401E0
:1034E0000400F80000010101FF008501040104004F
:1034F00088007000000000007000880104010401D1
:103500000501FF00010104010401FC008401040124
:103510000001800000000000CC01240124012401EE
:10352000240198000000000100010007F8010401D7
:103530000400000000010001F80004000400040180
:103540000801FC0004010001800170000C00100162
:10355000600180010001F0010C003001C000300169
:103560000C01F0010000000104018C0074017001E5
:103570008C01040000010101810171000E0018019D
:10358000600180010000000184010C01340144014C
:1035900084010C0000000000000000000001003E5B
:1035A000FC400240020000000000000000FFFF009D
:1035B00000000000000000400240023EFC0100004C
:1035C000000000000000006000800080004000401B
:1035D000002000200000000065322C64322C65328F
:1035E0002C64322C65322C42322C64322C63322C07
:1035F00041325F43322C45322C41322C42325F45FE
:10360000322C47322C42322C63345F45322C6532E7
:103610002C64322C65322C64322C65322C42322CD4
:1036200064322C63322C41325F43322C45322C41C0
:10363000322C42325F45322C63322C42322C4134E0
:10364000000000006436000800000020F4000000C4
:10365000C401000858370008F4000020CC5D0000C9
:10366000E00100080000000000000000E008000089
:10367000E8070000EE0E0000490D0000D60B000028
:10368000310B0000F709000070040000F403000093
:1036900078070000A7060000ED050000980500006F
:1036A000FB04000000000000007A030A0000000094
:1036B00000000000010203040607080900000000E2
:1036C00001020304010203040607080900000000C8
:1036D00000000000000000000000000000000000EA
:1036E00000000000000000000000000000000000DA
:1036F00000000000000000000000000000000000CA
:103700000000000000000000000000001F0000009A
:1037100000000000000000000000000000000000A9
:103720000000000000000000000000000000000099
:103730000000000000000000000000000000000089
:103740000000000000000000000000000000000079
:08375000AAAAAAAA00000000C9
:040000050800018965
:00000001FF
